{"abi":[{"type":"constructor","inputs":[],"stateMutability":"nonpayable"},{"type":"function","name":"read","inputs":[],"outputs":[{"name":"","type":"uint256","internalType":"uint256"}],"stateMutability":"view"}],"bytecode":{"object":"0x6080604052348015600e575f80fd5b5060115f55607480601e5f395ff3fe6080604052348015600e575f80fd5b50600436106026575f3560e01c806357de26a414602a575b5f80fd5b5f5460405190815260200160405180910390f3fea264697066735822122021e974186a8c8ec6c4e68a274a0a72bc753b56d8a8705a76aa037e6cf6dca68a64736f6c634300081a0033","linkReferences":{}},"methodIdentifiers":{"read()":"57de26a4"},"id":21}